:100000000C942A000C9447000C9447000C94470071
:100010000C9447000C9447000C9447000C94E51393
:100020000C9447000C9418140C9447000C9447004F
:100030000C9447000C9447000C9447000C94470024
:100040000C9447000C9447000C9447000C94470014
:100050000C94470011241FBECFE5D8E0DEBFCDBF12
:1000600010E0A0E6B0E0EAE2FDE202C005900D92E9
:10007000AA3EB107D9F710E0AAEEB0E001C01D9288
:10008000AE3FB107E1F70E94A3050C9493160C94C0
:100090000000EF92FF920F931F937B018C0120E0F1
:1000A00030E040E05FE40E94490388238CF0C801FF
:1000B000B70120E030E040E05FE40E94C1010E940F
:1000C000A9039B01AC01205030404040504806C07D
:1000D000C801B7010E94A9039B01AC01B901CA0183
:1000E0001F910F91FF90EF900895A0E0B0E0EBE733
:1000F000F0E00C941716DC012B01FA019C91923070
:1001000008F439C1EB018881823008F433C194309E
:1001100069F4843009F02FC111969C91119789815F
:10012000981709F428C1ABECB0E025C1843009F47C
:1001300021C18230A9F4923009F01DC19A01AD01AC
:1001400088E0EA010990AE01E90109929E0181501F
:10015000C1F7E201898111969C918923818308C1AD
:10016000923009F407C112962D903C901397EB0141
:100170008A819B811496AD90BD90CD90DC901797AD
:10018000EC80FD800E811F819101281B390BB90184
:1001900037FF04C066277727621B730B6032710537
:1001A0000CF061C0121613066CF537014801062EDB
:1001B00004C096948794779467940A94D2F721E0C8
:1001C00030E040E050E004C0220F331F441F551FB1
:1001D0006A95D2F721503040404050402E213F21B7
:1001E00040235123211531054105510521F021E01E
:1001F00030E040E050E079018A01E628F72808293C
:1002000019293CC0232BD1F1260E371E350146019A
:10021000062E04C096948794779467940A94D2F734
:1002200021E030E040E050E004C0220F331F441FC3
:10023000551F6A95D2F721503040404050402A2146
:100240003B214C215D21211531054105510521F04E
:1002500021E030E040E050E059016A01A628B728CB
:10026000C828D9280BC0821593052CF01C01AA249C
:10027000BB24650103C0EE24FF24870111969C91E5
:10028000D20111968C91981709F445C0992339F041
:10029000A80197012A193B094C095D0906C0A6016E
:1002A00095012E193F09400B510B57FD08C01182D3
:1002B0003382228224833583468357831DC081E0A5
:1002C00081833382228288279927DC01821B930B4A
:1002D000A40BB50B84839583A683B7830DC0220F2F
:1002E000331F441F551F24833583468357838281E0
:1002F000938101979383828324813581468157813D
:10030000DA01C9010197A109B1098F5F9F4FAF4F72
:10031000BF4328F30BC0918333822282EA0CFB1C7B
:100320000C1D1D1DE482F5820683178383E0808304
:10033000248135814681578157FF1AC0C901AA27F8
:1003400097FDA095BA2F81709070A070B0705695EF
:10035000479537952795822B932BA42BB52B848318
:100360009583A683B7838281938101969383828349
:10037000DF0101C0D201CD01CDB7DEB7E2E10C94BF
:100380003316A0E2B0E0E7ECF1E00C9423166983A9
:100390007A838B839C832D833E834F835887E9E048
:1003A000EE2EF12CEC0EFD1ECE010196B7010E943F
:1003B000D2048E010F5E1F4FCE010596B8010E9438
:1003C000D2048A8991E089278A8BC701B801AE01DE
:1003D000475E5F4F0E9475000E94FD03A096E6E015
:1003E0000C943F16A0E2B0E0E8EFF1E00C94231685
:1003F00069837A838B839C832D833E834F835887C5
:10040000F9E0EF2EF12CEC0EFD1ECE010196B701A6
:100410000E94D2048E010F5E1F4FCE010596B801D7
:100420000E94D204C701B801AE01475E5F4F0E942F
:1004300075000E94FD03A096E6E00C943F16A0E232
:10044000B0E0E5E2F2E00C94171669837A838B83BF
:100450009C832D833E834F835887CE010196BE0136
:10046000675F7F4F0E94D204CE010596BE016F5E8A
:100470007F4F0E94D2049985923088F0898982301A
:10048000C8F0943019F4823051F404C0843029F457
:10049000923081F48BEC90E0C6C0923049F420E0B9
:1004A0009A858A89981321E02A87CE010996BBC0D4
:1004B000823049F420E09A858A89981321E02A8BBA
:1004C000CE014196B0C02D843E844F8458886D88FB
:1004D0007E888F88988CEE24FF248701AA24BB2471
:1004E000650140E050E060E070E0E0E0F0E0C10174
:1004F00081709070892BE9F0E60CF71C081D191D1E
:100500009A01AB012A0D3B1D4C1D5D1D80E090E062
:10051000A0E0B0E0E614F7040805190520F481E036
:1005200090E0A0E0B0E0BA01A901480F591F6A1F8E
:100530007B1FAA0CBB1CCC1CDD1C97FE08C081E0F5
:1005400090E0A0E0B0E0A82AB92ACA2ADB2A3196B6
:10055000E032F10549F0660C771C881C991C569412
:10056000479437942794C3CFFA85EA892B893C892D
:100570008B859C85280F391F2E5F3F4F17C0CA01FE
:1005800081709070892B61F016950795F794E79428
:1005900080E090E0A0E0B0E8E82AF92A0A2B1B2BC3
:1005A00076956795579547952F5F3F4F77FDE7CF36
:1005B0000CC0440F551F661F771F17FD4160EE0CDE
:1005C000FF1C001F111F21503040403090E05907A0
:1005D00090E0690790E4790760F32B8F3C8FDB0193
:1005E000CA018F779070A070B07080349105A1051A
:1005F000B10561F447FD0AC0E114F10401051105DC
:1006000029F0405C5F4F6F4F7F4F40781A8EFE1786
:1006100011F081E08A8F4D8F5E8F6F8F78A383E01A
:10062000898FCE0149960E94FD03A096E2E10C94C9
:100630003316A8E1B0E0EFE1F3E00C9423166983F0
:100640007A838B839C832D833E834F83588789E0F5
:10065000E82EF12CEC0EFD1ECE010196B7010E9492
:10066000D2048E010F5E1F4FCE010596B8010E9485
:10067000D2048985823040F08989823028F0C70110
:10068000B8010E944A0501C08FEF6896E6E00C941D
:100690003F16A8E1B0E0EFE4F3E00C942316698381
:1006A0007A838B839C832D833E834F83588789E095
:1006B000E82EF12CEC0EFD1ECE010196B7010E9432
:1006C000D2048E010F5E1F4FCE010596B8010E9425
:1006D000D2048985823040F08989823028F0C701B0
:1006E000B8010E944A0501C08FEF6896E6E00C94BD
:1006F0003F16A8E1B0E0EFE7F3E00C94231669831E
:100700007A838B839C832D833E834F83588789E034
:10071000E82EF12CEC0EFD1ECE010196B7010E94D1
:10072000D2048E010F5E1F4FCE010596B8010E94C4
:10073000D2048985823040F08989823028F0C7014F
:10074000B8010E944A0501C081E06896E6E00C9479
:100750003F16ACE0B0E0EFEAF3E00C9427166983B3
:100760007A838B839C83CE010196BE016B5F7F4FA2
:100770000E94D2048D81823061F1823050F1843048
:1007800021F48E81882351F12EC02F81388537FDC9
:1007900020C06E812F3131051CF06623F9F023C093
:1007A0008EE190E0821B930B29853A854B855C8511
:1007B00004C056954795379527958A95D2F76623B5
:1007C000B1F050954095309521953F4F4F4F5F4F79
:1007D0000EC020E030E040E050E009C02FEF3FEFD6
:1007E0004FEF5FE704C020E030E040E050E8B9019F
:1007F000CA012C96E2E00C944316DF92EF92FF922E
:100800000F931F93FC01E480F58006811781D1804E
:100810008081823048F480E090E0A0E1B0E0E82AF6
:10082000F92A0A2B1B2BA5C0843009F49FC0823003
:1008300021F4EE24FF24870105C0E114F104010531
:10084000110519F4E0E0F0E096C0628173819FEF3A
:10085000623879070CF05BC022E83FEF261B370BAC
:100860002A3131052CF020E030E040E050E02AC091
:10087000B801A701022E04C0769567955795479554
:100880000A94D2F781E090E0A0E0B0E004C0880FC5
:10089000991FAA1FBB1F2A95D2F70197A109B10979
:1008A0008E219F21A023B1230097A105B10521F03E
:1008B00081E090E0A0E0B0E09A01AB01282B392B59
:1008C0004A2B5B2BDA01C9018F779070A070B07052
:1008D00080349105A105B10539F427FF09C0205CDA
:1008E0003F4F4F4F5F4F04C0215C3F4F4F4F5F4F13
:1008F000E0E0F0E02030A0E03A07A0E04A07A0E402
:100900005A0710F0E1E0F0E079018A0127C0603871
:10091000710564F5FB01E158FF4FD801C7018F77DE
:100920009070A070B07080349105A105B10539F4C4
:10093000E7FE0DC080E490E0A0E0B0E004C08FE3EB
:1009400090E0A0E0B0E0E80EF91E0A1F1B1F17FFA1
:1009500005C016950795F794E794319687E01695AC
:100960000795F794E7948A95D1F705C0EE24FF2404
:100970008701EFEFF0E06E2F679566276795902F60
:100980009F77D794DD24D7948E2F8695492F462BB9
:10099000582F5D29B701CA011F910F91FF90EF9069
:1009A000DF900895FC01DB01408151812281622F9B
:1009B0006F7770E0221F2227221F9381892F880FD3
:1009C000822B282F30E0991F9927991F11969C930D
:1009D000119721153105A9F54115510561057105DD
:1009E00011F482E037C082E89FEF13969C938E93B8
:1009F00012979A01AB0167E0220F331F441F551F66
:100A00006A95D1F783E08C930DC0220F331F441FEA
:100A1000551F12968D919C911397019713969C9355
:100A20008E931297203080E0380780E0480780E4FA
:100A3000580758F314962D933D934D935C93179755
:100A400008952F3F310579F4411551056105710570
:100A500019F484E08C93089564FF03C081E08C93C3
:100A600012C01C9210C02F57304013963C932E9307
:100A7000129783E08C9387E0440F551F661F771F02
:100A80008A95D1F7706414964D935D936D937C9322
:100A9000179708951F93DC01FB019C91923008F495
:100AA00047C08081823008F443C0943051F41196DD
:100AB0001C91843099F58181682F70E0611B710968
:100AC0003FC0843021F0923031F48230B9F181811D
:100AD000882389F12DC011961C9111978230F1F075
:100AE00081811817D9F412962D913C911397828128
:100AF00093818217930794F028173907BCF0149656
:100B00008D919D910D90BC91A02D248135814681C0
:100B10005781281739074A075B0718F4112341F05A
:100B20000AC082179307A407B50740F4112319F0F0
:100B300061E070E005C06FEF7FEF02C060E070E041
:100B4000CB011F910895DF93CF93CDB7DEB72C97DC
:100B50000FB6F894DEBF0FBECDBF0E94BA0E9E0145
:100B60002F5F3F4F3987288785EE90E09B878A87E4
:100B700095E09C87EA85FB8500802A853B852F5F71
:100B80003F4F3B872A87E885F9850082288539858C
:100B90002F5F3F4F398728873C8531503C878C85B4
:100BA000882341F7CE0101960E94DD14AFE5B0E045
:100BB000EFE5F0E0808180688C938091EA00E82F77
:100BC000F0E0FF83EE832E813F812115310531F066
:100BD0008E819F818130910521F0EFCF0E94F40535
:100BE000ECCF0E94AE07E9CFDF93CF93CDB7DEB74E
:100BF0000E94DB1380E690E00E94341381E060E005
:100C00000E945D130E941F060E94DB1380E790E0A4
:100C10000E94341381E060E00E945D1381E890E05F
:100C20000E94341381E06AE00E945D130E941F0657
:100C30000E947A158093EA00CF91DF9108950F9377
:100C40001F93DF93CF93CDB7DEB76D970FB6F894B0
:100C5000DEBF0FBECDBF1D8E91C08D8D082F10E061
:100C60000E949B0DF801EC50FF4F80838D8D882FE3
:100C700090E0FC01EC50FF4F80818D3009F482C080
:100C80008D8D882F90E0FC01EC50FF4F80810E94F9
:100C9000451180E090E0A1EEB3E4898F9A8FAB8F8D
:100CA000BC8F698D7A8D8B8D9C8D20E030E04AEF72
:100CB00054E40E941F02DC01CB018D8B9E8BAF8B15
:100CC000B88F6D897E898F89988D20E030E040E86B
:100CD0005FE30E94790388232CF481E090E09C8BF1
:100CE0008B8B3FC06D897E898F89988D20E03FEF87
:100CF0004FE757E40E94190318164CF5698D7A8D59
:100D00008B8D9C8D20E030E040E251E40E941F0278
:100D1000DC01CB01BC01CD010E944900DC01CB010B
:100D20009C8B8B8B0FC088EC90E09A8B898B898988
:100D30009A890197F1F79A8B898B8B899C89019706
:100D40009C8B8B8B8B899C89009769F714C06D896C
:100D50007E898F89988D0E944900DC01CB019C8B94
:100D60008B8B8B899C89988B8F878F85988901972E
:100D7000F1F7988B8F878D8D8F5F8D8F8D8D85305F
:100D800008F46BCF8D8D882F90E0FC01EC50FF4F65
:100D900083E280838D8D882F90E00196FC01EC50DA
:100DA000FF4F108284EF90E00E94891580E090E070
:100DB000A0E2B1E48B879C87AD87BE876B857C857D
:100DC0008D859E8520E030E04AEF54E40E941F02AA
:100DD000DC01CB018F839887A987BA876F817885DB
:100DE00089859A8520E030E040E85FE30E9479033E
:100DF00088232CF481E090E09E838D833FC06F8137
:100E0000788589859A8520E03FEF4FE757E40E9477
:100E1000190318164CF56B857C858D859E8520E021
:100E200030E040E251E40E941F02DC01CB01BC0132
:100E3000CD010E944900DC01CB019E838D830FC050
:100E400088EC90E09C838B838B819C810197F1F7E8
:100E50009C838B838D819E8101979E838D838D8161
:100E60009E81009769F714C06F81788589859A857E
:100E70000E944900DC01CB019E838D838D819E8180
:100E80009A83898389819A810197F1F79A8389836B
:100E90006D960FB6F894DEBF0FBECDBFCF91DF9138
:100EA0001F910F910895DF93CF9300D0CDB7DEB798
:100EB0008091EA00282F30E03A83298389819A8142
:100EC0008436910531F029813A812536310551F07A
:100ED00010C089ED90E00E944B148EE797E00E94CD
:100EE000CB1407C00E94DB1381E08093EA000E94CC
:100EF000BD140F900F90CF91DF910895DF93CF93A2
:100F0000CDB7DEB70E94DB1380E064E00E945D1382
:100F10008CE890E00E94341381E064E00E945D134D
:100F200084E990E00E94341385E68093EA0083ED23
:100F300090E00E944B1483E597E00E94CB14CF9180
:100F4000DF910895DF93CF93CDB7DEB70E94BD1434
:100F500081E08093EA00CF91DF910895DF93CF93F2
:100F6000CDB7DEB764970FB6F894DEBF0FBECDBF26
:100F70008091EB00833009F488C00E94DB1380E08D
:100F800060E00E945D138CE990E00E94341381E0E0
:100F900060E00E945D138AEA90E00E9434130E9490
:100FA0009B0D8093EC0080E090E0A6E9B3E48B8792
:100FB0009C87AD87BE876B857C858D859E8520E06F
:100FC00030E04AEF54E40E941F02DC01CB018F8322
:100FD0009887A987BA876F81788589859A8520E067
:100FE00030E040E85FE30E94790388232CF481E03D
:100FF00090E09E838D833FC06F81788589859A8537
:1010000020E03FEF4FE757E40E94190318164CF514
:101010006B857C858D859E8520E030E040E251E443
:101020000E941F02DC01CB01BC01CD010E944900DE
:10103000DC01CB019E838D830FC088EC90E09C8304
:101040008B838B819C810197F1F79C838B838D81AE
:101050009E8101979E838D838D819E81009769F784
:1010600014C06F81788589859A850E944900DC01CA
:10107000CB019E838D838D819E819A838983898113
:101080009A810197F1F79A8389838091EC00282F48
:1010900030E03C8B2B8B8B899C898B32910539F00E
:1010A0002B893C892D32310509F456C08DC00E9430
:1010B000DB1380E690E00E94341381E060E00E9440
:1010C0005D130E941F060E947A158093EB008091A9
:1010D000EB00282F30E03A8B298B89899A89009779
:1010E00041F129893A892130310509F06DC080919B
:1010F000EC000E9463150E94DB1380E065E00E9413
:101100005D138CE890E00E94341381E064E00E945B
:101110005D138AEB90E00E94341383E597E00E9410
:10112000CB1483ED90E00E944B1484E68093EA0098
:101130004BC082EA97E00E94CB148FED90E00E94B2
:101140004B140E94DB1380E065E00E945D1384EC89
:1011500090E00E94341338C00E94DB1380E690E0D8
:101160000E94341381E060E00E945D130E941F061C
:101170000E947A158093EB008091EB00282F30E0DD
:10118000388B2F878F859889009761F02F85388954
:1011900021303105C9F48091EC000E946315109252
:1011A000EA0012C082EA97E00E94CB148FED90E033
:1011B0000E944B140E94DB1380E065E00E945D13E7
:1011C00084EC90E00E94341364960FB6F894DEBF6E
:1011D0000FBECDBFCF91DF910895DF93CF9300D0A5
:1011E00000D00F92CDB7DEB789836A834B838A81A3
:1011F000883008F0D5C08981843008F0D1C0898159
:10120000282F30E03D832C838C819D818130910596
:1012100009F443C02C813D81223031052CF48C81AE
:101220009D81009771F0BCC02C813D812230310539
:1012300009F45FC08C819D818330910509F485C0DC
:10124000AFC08B818130A1F4AAE3B0E0EAE3F0E023
:101250008081482F8A81282F30E081E090E0022EA3
:1012600002C0880F991F0A94E2F7842B8C9398C0D0
:10127000AAE3B0E0EAE3F0E08081482F8A81282FDA
:1012800030E081E090E0022E02C0880F991F0A949E
:10129000E2F7809584238C9383C08B818130A1F405
:1012A000A7E3B0E0E7E3F0E08081482F8A81282FB0
:1012B00030E081E090E0022E02C0880F991F0A946E
:1012C000E2F7842B8C936CC0A7E3B0E0E7E3F0E097
:1012D0008081482F8A81282F30E081E090E0022E23
:1012E00002C0880F991F0A94E2F7809584238C939B
:1012F00057C08B818130A1F4A4E3B0E0E4E3F0E0D7
:101300008081482F8A81282F30E081E090E0022EF2
:1013100002C0880F991F0A94E2F7842B8C9340C077
:10132000A4E3B0E0E4E3F0E08081482F8A81282F35
:1013300030E081E090E0022E02C0880F991F0A94ED
:10134000E2F7809584238C932BC08B818130A1F4AC
:10135000A1E3B0E0E1E3F0E08081482F8A81282F0B
:1013600030E081E090E0022E02C0880F991F0A94BD
:10137000E2F7842B8C9314C0A1E3B0E0E1E3F0E04A
:101380008081482F8A81282F30E081E090E0022E72
:1013900002C0880F991F0A94E2F7809584238C93EA
:1013A0000F900F900F900F900F90CF91DF910895B5
:1013B000DF93CF9300D000D00F92CDB7DEB78983F3
:1013C0006A834B838A81883008F021C28981843006
:1013D00008F01DC28981282F30E03D832C834C8189
:1013E0005D814130510509F497C08C819D81823027
:1013F000910534F42C813D812115310571F007C22E
:101400004C815D814230510509F405C18C819D817B
:101410008330910509F47EC1FAC1EAE3F0E08081EE
:10142000282F30E08A81882F90E0A90102C05595CD
:1014300047958A95E2F7CA0181709070009761F52F
:101440008B818130A1F4ABE3B0E0EBE3F0E080818D
:10145000482F8A81282F30E081E090E0022E02C0E0
:10146000880F991F0A94E2F7842B8C93D0C1ABE3C9
:10147000B0E0EBE3F0E08081482F8A81282F30E054
:1014800081E090E0022E02C0880F991F0A94E2F7D3
:10149000809584238C93BBC1EAE3F0E08081282F00
:1014A00030E08A81882F90E0A90102C055954795C8
:1014B0008A95E2F7CA0181709070882309F4A7C168
:1014C0008B818130A1F4ABE3B0E0EBE3F0E080810D
:1014D000482F8A81282F30E081E090E0022E02C060
:1014E000880F991F0A94E2F7842B8C9390C1ABE389
:1014F000B0E0EBE3F0E08081482F8A81282F30E0D4
:1015000081E090E0022E02C0880F991F0A94E2F752
:10151000809584238C937BC1E7E3F0E08081282FC2
:1015200030E08A81882F90E0A90102C05595479547
:101530008A95E2F7CA0181709070009761F58B81FE
:101540008130A1F4A8E3B0E0E8E3F0E08081482F27
:101550008A81282F30E081E090E0022E02C0880FBF
:10156000991F0A94E2F7842B8C9351C1A8E3B0E051
:10157000E8E3F0E08081482F8A81282F30E081E085
:1015800090E0022E02C0880F991F0A94E2F780951E
:1015900084238C933CC1E7E3F0E08081282F30E086
:1015A0008A81882F90E0A90102C0559547958A95B8
:1015B000E2F7CA0181709070882309F428C18B81F9
:1015C0008130A1F4A8E3B0E0E8E3F0E08081482FA7
:1015D0008A81282F30E081E090E0022E02C0880F3F
:1015E000991F0A94E2F7842B8C9311C1A8E3B0E011
:1015F000E8E3F0E08081482F8A81282F30E081E005
:1016000090E0022E02C0880F991F0A94E2F780959D
:1016100084238C93FCC0E4E3F0E08081282F30E049
:101620008A81882F90E0A90102C0559547958A9537
:10163000E2F7CA0181709070009761F58B8181306B
:10164000A1F4A5E3B0E0E5E3F0E08081482F8A81D2
:10165000282F30E081E090E0022E02C0880F991F11
:101660000A94E2F7842B8C93D2C0A5E3B0E0E5E3C3
:10167000F0E08081482F8A81282F30E081E090E0DF
:10168000022E02C0880F991F0A94E2F780958423E6
:101690008C93BDC0E4E3F0E08081282F30E08A81A4
:1016A000882F90E0A90102C0559547958A95E2F7E9
:1016B000CA0181709070882309F4A9C08B818130A0
:1016C000A1F4A5E3B0E0E5E3F0E08081482F8A8152
:1016D000282F30E081E090E0022E02C0880F991F91
:1016E0000A94E2F7842B8C9392C0A5E3B0E0E5E383
:1016F000F0E08081482F8A81282F30E081E090E05F
:10170000022E02C0880F991F0A94E2F78095842365
:101710008C937DC0E1E3F0E08081282F30E08A8166
:10172000882F90E0A90102C0559547958A95E2F768
:10173000CA0181709070009761F58B818130A1F4AE
:10174000A2E3B0E0E2E3F0E08081482F8A81282F15
:1017500030E081E090E0022E02C0880F991F0A94C9
:10176000E2F7842B8C9353C0A2E3B0E0E2E3F0E015
:101770008081482F8A81282F30E081E090E0022E7E
:1017800002C0880F991F0A94E2F7809584238C93F6
:101790003EC0E1E3F0E08081282F30E08A81882F8D
:1017A00090E0A90102C0559547958A95E2F7CA01D4
:1017B00081709070882359F18B818130A1F4A2E36C
:1017C000B0E0E2E3F0E08081482F8A81282F30E00A
:1017D00081E090E0022E02C0880F991F0A94E2F780
:1017E000842B8C9314C0A2E3B0E0E2E3F0E08081AC
:1017F000482F8A81282F30E081E090E0022E02C03D
:10180000880F991F0A94E2F7809584238C930F9098
:101810000F900F900F900F90CF91DF910895DF936D
:10182000CF9300D000D000D0CDB7DEB789836A83D4
:101830008A81883018F48981843010F01D829BC021
:101840008981282F30E03C832B834B815C814130A0
:101850005105B1F18B819C818230910534F42B814B
:101860003C812115310571F085C04B815C8142308E
:10187000510509F443C08B819C818330910509F4A3
:101880005BC078C0E9E3F0E08081482F50E08A81B6
:10189000282F30E081E090E002C0880F991F2A9540
:1018A000E2F79A01282339238A81882F90E0A90141
:1018B00002C0559547958A95E2F7CA018D835BC0B2
:1018C000E6E3F0E08081482F50E08A81282F30E065
:1018D00081E090E002C0880F991F2A95E2F79A01F3
:1018E000282339238A81882F90E0A90102C05595C9
:1018F00047958A95E2F7CA018D833DC0E3E3F0E0A6
:101900008081482F50E08A81282F30E081E090E0EC
:1019100002C0880F991F2A95E2F79A0128233923DC
:101920008A81882F90E0A90102C0559547958A9534
:10193000E2F7CA018D831FC0E0E3F0E08081482F09
:1019400050E08A81282F30E081E090E002C0880FCB
:10195000991F2A95E2F79A01282339238A81882F33
:1019600090E0A90102C0559547958A95E2F7CA0112
:101970008D8301C002C05D815E838E8126960FB685
:10198000F894DEBF0FBECDBFCF91DF910895DF93F6
:10199000CF9300D000D0CDB7DEB789836A83898129
:1019A000843090F58981282F30E03C832B838B8114
:1019B0009C8181309105D1F02B813C812230310511
:1019C0002CF48B819C81009761F01EC02B813C819F
:1019D0002230310581F08B819C818330910581F02B
:1019E00013C0EAE3F0E08A8180830EC0E7E3F0E011
:1019F0008A81808309C0E4E3F0E08A81808304C0A7
:101A0000E1E3F0E08A8180830F900F900F900F90B8
:101A1000CF91DF910895DF93CF9300D000D0CDB761
:101A2000DEB789836A838981843090F58981282F84
:101A300030E03C832B838B819C8181309105D1F0F8
:101A40002B813C81223031052CF48B819C810097C5
:101A500061F01EC02B813C812230310581F08B81E9
:101A60009C818330910581F013C0EBE3F0E08A8123
:101A700080830EC0E8E3F0E08A81808309C0E5E35B
:101A8000F0E08A81808304C0E2E3F0E08A81808311
:101A90000F900F900F900F90CF91DF910895DF93EB
:101AA000CF9300D000D00F92CDB7DEB78983898164
:101AB000843010F01C8234C08981282F30E03B83B1
:101AC0002A838A819B8181309105D1F02A813B81D3
:101AD000223031052CF48A819B81009761F01FC070
:101AE0002A813B812230310581F08A819B818330BC
:101AF000910581F014C0E9E3F0E090819C8310C06F
:101B0000E6E3F0E020812C830BC0E3E3F0E03081DA
:101B10003C8306C0E0E3F0E080818C8301C002C01A
:101B20009C819D838D810F900F900F900F900F904F
:101B3000CF91DF910895DF93CF9300D0CDB7DEB77B
:101B400080E060E041E00E94ED0880E061E041E07B
:101B50000E94ED0880E062E041E00E94ED0880E034
:101B600063E041E00E94ED0880E060E040E00E9418
:101B7000D80980E061E040E00E94D80980E062E09E
:101B800040E00E94D80980E063E040E00E94D8096C
:101B900080E064E040E00E94ED0880E065E040E025
:101BA0000E94ED0880E066E040E00E94ED0880E0E1
:101BB00067E040E00E94ED08198230C080E0698152
:101BC00041E00E94D8091A821EC08A81982F9C5F2A
:101BD00080E0692F0E940F0C813091F48981882F59
:101BE00090E0880F991F880F991F982F8A81890F7D
:101BF0008F5F0E94120E0F900F90CF91DF9108958A
:101C00008A818F5F8A838A818430F8F280E06981DB
:101C100040E00E94D80989818F5F8983898184305F
:101C200068F2CACFDF93CF9300D000D0CDB7DEB734
:101C30008A8319828A81282F30E03C832B838B8111
:101C40009C818830910509F470C02B813C8129303A
:101C500031055CF58B819C818430910509F459C074
:101C60002B813C81253031059CF48B819C81823015
:101C7000910509F448C02B813C81233031050CF0DB
:101C800045C08B819C818130910509F439C068C0C1
:101C90002B813C812630310509F441C08B819C8128
:101CA000873091050CF03EC037C02B813C812C3031
:101CB000310509F446C08B819C818D3091055CF41F
:101CC0002B813C812A303105B1F18B819C818B3095
:101CD0009105A4F52DC02B813C812E303105B9F141
:101CE0008B819C818E3091057CF12B813C812F3042
:101CF000310581F18B819C818031910571F130C07A
:101D000087E389832FC088E389832CC089E3898393
:101D100029C085E2898326C084E3898323C085E3C3
:101D2000898320C086E389831DC08AE289831AC023
:101D300081E3898317C082E3898314C083E38983A5
:101D400011C08DE289830EC08DE089830BC080E3D2
:101D5000898308C08DE3898305C08BE2898302C033
:101D60008A81898389810F900F900F900F90CF9176
:101D7000DF910895DF93CF93CDB7DEB72E970FB6DF
:101D8000F894DEBF0FBECDBF81E060E041E00E946D
:101D9000ED0881E062E041E00E94ED0880E090E023
:101DA000A0EAB1E48B879C87AD87BE876B857C8575
:101DB0008D859E8520E030E04AEF54E40E941F02AA
:101DC000DC01CB018F839887A987BA876F817885DB
:101DD00089859A8520E030E040E85FE30E9479033E
:101DE00088232CF481E090E09E838D833FC06F8137
:101DF000788589859A8520E03FEF4FE757E40E9478
:101E0000190318164CF56B857C858D859E8520E021
:101E100030E040E251E40E941F02DC01CB01BC0132
:101E2000CD010E944900DC01CB019E838D830FC050
:101E300088EC90E09C838B838B819C810197F1F7E8
:101E40009C838B838D819E8101979E838D838D8161
:101E50009E81009769F714C06F81788589859A857E
:101E60000E944900DC01CB019E838D838D819E8180
:101E70009A83898389819A810197F1F79A8389836B
:101E800082E06FEF0E94C70C88E30E94560F8CE03F
:101E90000E94560F81E00E94560F2E960FB6F894BE
:101EA000DEBF0FBECDBFCF91DF910895DF93CF93FB
:101EB000CDB7DEB7E9970FB6F894DEBF0FBECDBF42
:101EC00089AF81E060E040E00E94D80980E090E0C6
:101ED000A0E8BFE38DAB9EABAFABB8AF6DA97EA959
:101EE0008FA998AD20E030E04AEF54E40E941F0231
:101EF000DC01CB0189AB9AABABABBCAB69A97AA9CE
:101F00008BA99CA920E030E040E85FE30E947903C0
:101F100088232CF481E090E098AB8FA73FC069A99B
:101F20007AA98BA99CA920E03FEF4FE757E40E94D4
:101F3000190318164CF56DA97EA98FA998AD20E05C
:101F400030E040E251E40E941F02DC01CB01BC0101
:101F5000CD010E944900DC01CB0198AB8FA70FC0D7
:101F600088EC90E09EA78DA78DA59EA50197F1F71F
:101F70009EA78DA78FA598A9019798AB8FA78FA52E
:101F800098A9009769F714C069A97AA98BA99CA997
:101F90000E944900DC01CB0198AB8FA78FA598A9BF
:101FA0009CA78BA78BA59CA50197F1F79CA78BA756
:101FB00081E062E041E00E94D80980E090E0A0E882
:101FC000BFE38FA398A7A9A7BAA76FA178A589A5F2
:101FD0009AA520E030E04AEF54E40E941F02DC01A1
:101FE000CB018BA39CA3ADA3BEA36BA17CA18DA1B0
:101FF0009EA120E030E040E85FE30E94790388235F
:102000002CF481E090E09AA389A33FC06BA17CA14E
:102010008DA19EA120E03FEF4FE757E40E941903F6
:1020200018164CF56FA178A589A59AA520E030E097
:1020300040E251E40E941F02DC01CB01BC01CD0152
:102040000E944900DC01CB019AA389A30FC088EC50
:1020500090E098A38F8F8F8D98A10197F1F798A3A7
:102060008F8F89A19AA101979AA389A389A19AA187
:10207000009769F714C06BA17CA18DA19EA10E945D
:102080004900DC01CB019AA389A389A19AA19E8F63
:102090008D8F8D8D9E8D0197F1F79E8F8D8F82E0B4
:1020A00069AD0E940B0D80E090E0A0E8BFE3898F4E
:1020B0009A8FAB8FBC8F698D7A8D8B8D9C8D20E034
:1020C00030E04AEF54E40E941F02DC01CB018D8B0B
:1020D0009E8BAF8BB88F6D897E898F89988D20E01C
:1020E00030E040E85FE30E94790388232CF481E02C
:1020F00090E09C8B8B8B3FC06D897E898F89988DFA
:1021000020E03FEF4FE757E40E94190318164CF503
:10211000698D7A8D8B8D9C8D20E030E040E251E41A
:102120000E941F02DC01CB01BC01CD010E944900CD
:10213000DC01CB019C8B8B8B0FC088EC90E09A8BE1
:10214000898B89899A890197F1F79A8B898B8B8979
:102150009C8901979C8B8B8B8B899C89009769F755
:1021600014C06D897E898F89988D0E944900DC0199
:10217000CB019C8B8B8B8B899C89988B8F878F85D0
:1021800098890197F1F7988B8F8781E062E040E0B2
:102190000E94D80980E090E0A0E8BFE38B879C878D
:1021A000AD87BE876B857C858D859E8520E030E080
:1021B0004AEF54E40E941F02DC01CB018F83988711
:1021C000A987BA876F81788589859A8520E030E074
:1021D00040E85FE30E94790388232CF481E090E0DB
:1021E0009E838D833FC06F81788589859A8520E0A5
:1021F0003FEF4FE757E40E94190318164CF56B8523
:102200007C858D859E8520E030E040E251E40E948F
:102210001F02DC01CB01BC01CD010E944900DC01A1
:10222000CB019E838D830FC088EC90E09C838B83D1
:102230008B819C810197F1F79C838B838D819E819B
:1022400001979E838D838D819E81009769F714C0CD
:102250006F81788589859A850E944900DC01CB01D0
:102260009E838D838D819E819A83898389819A81C2
:102270000197F1F79A838983E9960FB6F894DEBF48
:102280000FBECDBFCF91DF910895DF93CF93CDB730
:10229000DEB7E9970FB6F894DEBF0FBECDBF89AFAA
:1022A00081E060E041E00E94D80980E090E0A0E891
:1022B000BFE38DAB9EABAFABB8AF6DA97EA98FA9C5
:1022C00098AD20E030E04AEF54E40E941F02DC01A8
:1022D000CB0189AB9AABABABBCAB69A97AA98BA993
:1022E0009CA920E030E040E85FE30E947903882366
:1022F0002CF481E090E098AB8FA73FC069A97AA940
:102300008BA99CA920E03FEF4FE757E40E941903F7
:1023100018164CF56DA97EA98FA998AD20E030E084
:1023200040E251E40E941F02DC01CB01BC01CD015F
:102330000E944900DC01CB0198AB8FA70FC088EC4D
:1023400090E09EA78DA78DA59EA50197F1F79EA76A
:102350008DA78FA598A9019798AB8FA78FA598A94E
:10236000009769F714C069A97AA98BA99CA90E9452
:102370004900DC01CB0198AB8FA78FA598A99CA73A
:102380008BA78BA59CA50197F1F79CA78BA781E054
:1023900062E041E00E94D80980E090E0A0E8BFE35D
:1023A0008FA398A7A9A7BAA76FA178A589A59AA571
:1023B00020E030E04AEF54E40E941F02DC01CB0130
:1023C0008BA39CA3ADA3BEA36BA17CA18DA19EA159
:1023D00020E030E040E85FE30E94790388232CF49A
:1023E00081E090E09AA389A33FC06BA17CA18DA15D
:1023F0009EA120E03FEF4FE757E40E941903181613
:102400004CF56FA178A589A59AA520E030E040E2BF
:1024100051E40E941F02DC01CB01BC01CD010E94EE
:102420004900DC01CB019AA389A30FC088EC90E09E
:1024300098A38F8F8F8D98A10197F1F798A38F8F15
:1024400089A19AA101979AA389A389A19AA100972A
:1024500069F714C06BA17CA18DA19EA10E944900C7
:10246000DC01CB019AA389A389A19AA19E8F8D8FAC
:102470008D8D9E8D0197F1F79E8F8D8F82E069ADD6
:102480000E940B0D80E090E0A0E8BFE3898F9A8F57
:10249000AB8FBC8F698D7A8D8B8D9C8D20E030E069
:1024A0004AEF54E40E941F02DC01CB018D8B9E8B0E
:1024B000AF8BB88F6D897E898F89988D20E030E051
:1024C00040E85FE30E94790388232CF481E090E0E8
:1024D0009C8B8B8B3FC06D897E898F89988D20E086
:1024E0003FEF4FE757E40E94190318164CF5698D2A
:1024F0007A8D8B8D9C8D20E030E040E251E40E948B
:102500001F02DC01CB01BC01CD010E944900DC01AE
:10251000CB019C8B8B8B0FC088EC90E09A8B898BC6
:1025200089899A890197F1F79A8B898B8B899C8984
:1025300001979C8B8B8B8B899C89009769F714C0C2
:102540006D897E898F89988D0E944900DC01CB01BD
:102550009C8B8B8B8B899C89988B8F878F85988997
:102560000197F1F7988B8F8781E062E040E00E944D
:10257000D80980E090E0A0E8BFE38B879C87AD8717
:10258000BE876B857C858D859E8520E030E04AEF97
:1025900054E40E941F02DC01CB018F839887A98736
:1025A000BA876F81788589859A8520E030E040E898
:1025B0005FE30E94790388232CF481E090E09E83FE
:1025C0008D833FC06F81788589859A8520E03FEFB4
:1025D0004FE757E40E94190318164CF56B857C856C
:1025E0008D859E8520E030E040E251E40E941F028C
:1025F000DC01CB01BC01CD010E944900DC01CB0113
:102600009E838D830FC088EC90E09C838B838B81AD
:102610009C810197F1F79C838B838D819E8101972B
:102620009E838D838D819E81009769F714C06F8191
:10263000788589859A850E944900DC01CB019E83BB
:102640008D838D819E819A83898389819A81019767
:10265000F1F79A838983E9960FB6F894DEBF0FBE2F
:10266000CDBFCF91DF910895DF93CF9300D00F922C
:10267000CDB7DEB79B838A8319820EC08981282F4C
:1026800030E08A819B81FC01E20FF31F80810E9470
:10269000451189818F5F89838981282F30E08A8164
:1026A0009B81FC01E20FF31F8081882339F70F9093
:1026B0000F900F90CF91DF910895DF93CF9300D0CB
:1026C00000D00F92CDB7DEB78A836B838A81282F23
:1026D00030E03D832C838C819D8181309105C1F058
:1026E0002C813D81223031052CF48C819D81009715
:1026F00061F019C02C813D812230310569F08C8157
:102700009D818330910561F00EC08B8189830BC060
:102710008B81805C898307C08B81805F898303C044
:102720008B81805B8983898180680E94560F0F901E
:102730000F900F900F900F90CF91DF910895DF933E
:10274000CF9300D000D0CDB7DEB789836A835C8396
:102750004B8389816A810E945D138B819C810E94D9
:1027600034130F900F900F900F90CF91DF91089539
:10277000DF93CF93CDB7DEB762970FB6F894DEBF85
:102780000FBECDBF9A8B898B89899A899E012F5F55
:102790003F4FB9014AE050E00E944E16CE0101962B
:1027A0000E94341362960FB6F894DEBF0FBECDBF01
:1027B000CF91DF910895DF93CF93CDB7DEB781E05E
:1027C0000E94560FCF91DF9108951F920F920FB67E
:1027D0000F9211242F933F934F935F936F937F93A7
:1027E0008F939F93AF93BF93EF93FF93DF93CF9319
:1027F000CDB7DEB78091ED009091EE00009729F003
:10280000E091ED00F091EE000995CF91DF91FF91FD
:10281000EF91BF91AF919F918F917F916F915F9158
:102820004F913F912F910F900FBE0F901F901895D1
:102830001F920F920FB60F9211242F933F934F9335
:102840005F936F937F938F939F93AF93BF93EF9318
:10285000FF93DF93CF93CDB7DEB78091ED009091DA
:10286000EE00009729F0E091ED00F091EE0009955F
:10287000CF91DF91FF91EF91BF91AF919F918F9198
:102880007F916F915F914F913F912F910F900FBE6C
:102890000F901F901895DF93CF9300D0CDB7DEB780
:1028A0009A838983ACE4B0E0E981FA8180819181E7
:1028B00011969C938E93AEE4B0E0EEE4F0E080815C
:1028C000982F987FE981FA818481892B8C93E98103
:1028D000FA8185818823E1F4AEE4B0E0EEE4F0E033
:1028E0008081282F277FE981FA818581882F90E0D8
:1028F000880F991F880F991F880F991F822B8C931F
:10290000A9E5B0E0E9E5F0E0808184608C9330C017
:10291000E981FA818581813059F5AEE4B0E0EEE4D9
:10292000F0E08081282F277FE981FA818581882F37
:1029300090E0880F991F880F991F880F991F822B8D
:102940008C93AAE4B0E0E981FA81828193811196A7
:102950009C938E93A9E5B0E0E9E5F0E08081806189
:102960008C93A9E5B0E0E9E5F0E0808180688C9384
:102970000F900F90CF91DF910895DF93CF93CDB754
:10298000DEB7AEE4B0E0EEE4F0E08081887F8C93C7
:10299000CF91DF910895DF93CF9300D0CDB7DEB70D
:1029A0009A83898389819A819093EE008093ED00C8
:1029B0000F900F90CF91DF910895DF93CF9300D0C8
:1029C00000D0CDB7DEB79C838B831A821982EBE2ED
:1029D000F0E082E08083EAE2F0E088E18083ABE22D
:1029E000B0E0EBE2F0E0808180688C93A0E4B0E09E
:1029F000E0E4F0E08081282F2F7CEB81FC81818155
:102A0000882F90E08370907082959295907F9827A0
:102A1000807F9827822B8C93A0E4B0E0E0E4F0E084
:102A20008081282F277FEB81FC818281882F90E095
:102A300081709070880F991F880F991F880F991FB8
:102A4000822B8C93A0E4B0E0E0E4F0E08081982F4A
:102A5000987FEB81FC8180818770892B8C93EB813F
:102A6000FC8183819481CC01A0E0B0E0880F991FA4
:102A7000AA1FBB1F880F991FAA1FBB1F880F991F72
:102A8000AA1FBB1F9C01AD0180E092E1AAE7B0E064
:102A9000BC01CD010E94F515DA01C90101979A83A5
:102AA0008983E0E4F0E089819A81892F99278083E6
:102AB000E9E2F0E0898180830F900F900F900F90F2
:102AC000CF91DF910895DF93CF930F92CDB7DEB70B
:102AD0008983EBE2F0E08081882F90E08072907033
:102AE0000097B9F3ECE2F0E0898180830F90CF91F9
:102AF000DF910895DF93CF93CDB7DEB7EBE2F0E03F
:102B000080818823DCF7ECE2F0E08081CF91DF91D7
:102B10000895DF93CF9300D00F92CDB7DEB79B839C
:102B20008A8319820EC08981282F30E08A819B8197
:102B3000FC01E20FF31F80810E94631589818F5F82
:102B400089838981282F30E08A819B81FC01E20FF3
:102B5000F31F8081882339F70F900F900F90CF914A
:102B6000DF9108950F931F93DF93CF9300D00F92BF
:102B7000CDB7DEB79B838A8319828981282F30E005
:102B80008A819B818C01020F131F0E947A15F80124
:102B900080830FC089818F5F89838981282F30E0EE
:102BA0008A819B818C01020F131F0E947A15F80104
:102BB00080838981282F30E08A819B81FC01E20F8C
:102BC000F31F8081833231F78981282F30E08A8199
:102BD0009B81FC01E20FF31F10820F900F900F906A
:102BE000CF91DF911F910F910895A1E21A2EAA1B98
:102BF000BB1BFD010DC0AA1FBB1FEE1FFF1FA217AD
:102C0000B307E407F50720F0A21BB30BE40BF50BA9
:102C1000661F771F881F991F1A9469F76095709532
:102C2000809590959B01AC01BD01CF0108952F9235
:102C30003F924F925F926F927F928F929F92AF924C
:102C4000BF92CF92DF92EF92FF920F931F93CF9399
:102C5000DF93CDB7DEB7CA1BDB0B0FB6F894DEBF30
:102C60000FBECDBF09942A88398848885F846E8456
:102C70007D848C849B84AA84B984C884DF80EE80A0
:102C8000FD800C811B81AA81B981CE0FD11D0FB6A9
:102C9000F894DEBF0FBECDBFED010895FB019F018B
:102CA000E8944230C4F04532B4F44A3029F497FB3A
:102CB0001EF4909581959F4F642F77270E947F1671
:102CC000805D8A330CF0895D8193CB010097A1F779
:102CD00016F45DE251931082C9010C946F16DC0169
:102CE000FC01672F71917723E1F7329704C07C9143
:102CF0006D9370836291AE17BF07C8F30895AA1B46
:102D0000BB1B51E107C0AA1FBB1FA617B70710F0D6
:102D1000A61BB70B881F991F5A95A9F78095909508
:0A2D2000BC01CD010895F894FFCF27
:102D2A00506C7A20656E74657220506173733A0034
:102D3A00506C7A2072655F656E746572207468657E
:102D4A000053616D6520506173733A00446F6F726E
:102D5A00206973004C6F636B696E67002B203A2001
:102D6A004F50454E20444F4F52002D203A204348A1
:102D7A00414E4745205041535300556E6C6F636B6B
:102D8A00696E67006572726F7221000000000000B0
:102D9A000000000000393905010000720B0501002E
:0A2DAA0000E2E405010300008025AB
:00000001FF
